{
  "_format": "hh-sol-artifact-1",
  "contractName": "SimpleContract",
  "sourceName": "contracts/simplecontract.sol",
  "abi": [
    {
      "inputs": [],
      "stateMutability": "payable",
      "type": "constructor"
    },
    {
      "inputs": [
        {
          "internalType": "address",
          "name": "sender",
          "type": "address"
        },
        {
          "internalType": "uint256",
          "name": "tokenId",
          "type": "uint256"
        },
        {
          "internalType": "address",
          "name": "owner",
          "type": "address"
        }
      ],
      "name": "ERC721IncorrectOwner",
      "type": "error"
    },
    {
      "inputs": [
        {
          "internalType": "address",
          "name": "operator",
          "type": "address"
        },
        {
          "internalType": "uint256",
          "name": "tokenId",
          "type": "uint256"
        }
      ],
      "name": "ERC721InsufficientApproval",
      "type": "error"
    },
    {
      "inputs": [
        {
          "internalType": "address",
          "name": "approver",
          "type": "address"
        }
      ],
      "name": "ERC721InvalidApprover",
      "type": "error"
    },
    {
      "inputs": [
        {
          "internalType": "address",
          "name": "operator",
          "type": "address"
        }
      ],
      "name": "ERC721InvalidOperator",
      "type": "error"
    },
    {
      "inputs": [
        {
          "internalType": "address",
          "name": "owner",
          "type": "address"
        }
      ],
      "name": "ERC721InvalidOwner",
      "type": "error"
    },
    {
      "inputs": [
        {
          "internalType": "address",
          "name": "receiver",
          "type": "address"
        }
      ],
      "name": "ERC721InvalidReceiver",
      "type": "error"
    },
    {
      "inputs": [
        {
          "internalType": "address",
          "name": "sender",
          "type": "address"
        }
      ],
      "name": "ERC721InvalidSender",
      "type": "error"
    },
    {
      "inputs": [
        {
          "internalType": "uint256",
          "name": "tokenId",
          "type": "uint256"
        }
      ],
      "name": "ERC721NonexistentToken",
      "type": "error"
    },
    {
      "inputs": [
        {
          "internalType": "address",
          "name": "owner",
          "type": "address"
        }
      ],
      "name": "OwnableInvalidOwner",
      "type": "error"
    },
    {
      "inputs": [
        {
          "internalType": "address",
          "name": "account",
          "type": "address"
        }
      ],
      "name": "OwnableUnauthorizedAccount",
      "type": "error"
    },
    {
      "anonymous": false,
      "inputs": [
        {
          "indexed": true,
          "internalType": "address",
          "name": "owner",
          "type": "address"
        },
        {
          "indexed": true,
          "internalType": "address",
          "name": "approved",
          "type": "address"
        },
        {
          "indexed": true,
          "internalType": "uint256",
          "name": "tokenId",
          "type": "uint256"
        }
      ],
      "name": "Approval",
      "type": "event"
    },
    {
      "anonymous": false,
      "inputs": [
        {
          "indexed": true,
          "internalType": "address",
          "name": "owner",
          "type": "address"
        },
        {
          "indexed": true,
          "internalType": "address",
          "name": "operator",
          "type": "address"
        },
        {
          "indexed": false,
          "internalType": "bool",
          "name": "approved",
          "type": "bool"
        }
      ],
      "name": "ApprovalForAll",
      "type": "event"
    },
    {
      "anonymous": false,
      "inputs": [
        {
          "indexed": true,
          "internalType": "address",
          "name": "previousOwner",
          "type": "address"
        },
        {
          "indexed": true,
          "internalType": "address",
          "name": "newOwner",
          "type": "address"
        }
      ],
      "name": "OwnershipTransferred",
      "type": "event"
    },
    {
      "anonymous": false,
      "inputs": [
        {
          "indexed": true,
          "internalType": "address",
          "name": "from",
          "type": "address"
        },
        {
          "indexed": true,
          "internalType": "address",
          "name": "to",
          "type": "address"
        },
        {
          "indexed": true,
          "internalType": "uint256",
          "name": "tokenId",
          "type": "uint256"
        }
      ],
      "name": "Transfer",
      "type": "event"
    },
    {
      "inputs": [
        {
          "internalType": "address",
          "name": "to",
          "type": "address"
        },
        {
          "internalType": "uint256",
          "name": "tokenId",
          "type": "uint256"
        }
      ],
      "name": "approve",
      "outputs": [],
      "stateMutability": "nonpayable",
      "type": "function"
    },
    {
      "inputs": [
        {
          "internalType": "address",
          "name": "owner",
          "type": "address"
        }
      ],
      "name": "balanceOf",
      "outputs": [
        {
          "internalType": "uint256",
          "name": "",
          "type": "uint256"
        }
      ],
      "stateMutability": "view",
      "type": "function"
    },
    {
      "inputs": [
        {
          "internalType": "uint256",
          "name": "tokenId",
          "type": "uint256"
        }
      ],
      "name": "getApproved",
      "outputs": [
        {
          "internalType": "address",
          "name": "",
          "type": "address"
        }
      ],
      "stateMutability": "view",
      "type": "function"
    },
    {
      "inputs": [
        {
          "internalType": "address",
          "name": "owner",
          "type": "address"
        },
        {
          "internalType": "address",
          "name": "operator",
          "type": "address"
        }
      ],
      "name": "isApprovedForAll",
      "outputs": [
        {
          "internalType": "bool",
          "name": "",
          "type": "bool"
        }
      ],
      "stateMutability": "view",
      "type": "function"
    },
    {
      "inputs": [],
      "name": "isMintEnabled",
      "outputs": [
        {
          "internalType": "bool",
          "name": "",
          "type": "bool"
        }
      ],
      "stateMutability": "view",
      "type": "function"
    },
    {
      "inputs": [],
      "name": "maxSupply",
      "outputs": [
        {
          "internalType": "uint256",
          "name": "",
          "type": "uint256"
        }
      ],
      "stateMutability": "view",
      "type": "function"
    },
    {
      "inputs": [],
      "name": "mint",
      "outputs": [],
      "stateMutability": "payable",
      "type": "function"
    },
    {
      "inputs": [],
      "name": "mintPrice",
      "outputs": [
        {
          "internalType": "uint256",
          "name": "",
          "type": "uint256"
        }
      ],
      "stateMutability": "view",
      "type": "function"
    },
    {
      "inputs": [
        {
          "internalType": "address",
          "name": "",
          "type": "address"
        }
      ],
      "name": "mintedWallets",
      "outputs": [
        {
          "internalType": "uint256",
          "name": "",
          "type": "uint256"
        }
      ],
      "stateMutability": "view",
      "type": "function"
    },
    {
      "inputs": [],
      "name": "name",
      "outputs": [
        {
          "internalType": "string",
          "name": "",
          "type": "string"
        }
      ],
      "stateMutability": "view",
      "type": "function"
    },
    {
      "inputs": [],
      "name": "owner",
      "outputs": [
        {
          "internalType": "address",
          "name": "",
          "type": "address"
        }
      ],
      "stateMutability": "view",
      "type": "function"
    },
    {
      "inputs": [
        {
          "internalType": "uint256",
          "name": "tokenId",
          "type": "uint256"
        }
      ],
      "name": "ownerOf",
      "outputs": [
        {
          "internalType": "address",
          "name": "",
          "type": "address"
        }
      ],
      "stateMutability": "view",
      "type": "function"
    },
    {
      "inputs": [],
      "name": "renounceOwnership",
      "outputs": [],
      "stateMutability": "nonpayable",
      "type": "function"
    },
    {
      "inputs": [
        {
          "internalType": "address",
          "name": "from",
          "type": "address"
        },
        {
          "internalType": "address",
          "name": "to",
          "type": "address"
        },
        {
          "internalType": "uint256",
          "name": "tokenId",
          "type": "uint256"
        }
      ],
      "name": "safeTransferFrom",
      "outputs": [],
      "stateMutability": "nonpayable",
      "type": "function"
    },
    {
      "inputs": [
        {
          "internalType": "address",
          "name": "from",
          "type": "address"
        },
        {
          "internalType": "address",
          "name": "to",
          "type": "address"
        },
        {
          "internalType": "uint256",
          "name": "tokenId",
          "type": "uint256"
        },
        {
          "internalType": "bytes",
          "name": "data",
          "type": "bytes"
        }
      ],
      "name": "safeTransferFrom",
      "outputs": [],
      "stateMutability": "nonpayable",
      "type": "function"
    },
    {
      "inputs": [
        {
          "internalType": "address",
          "name": "operator",
          "type": "address"
        },
        {
          "internalType": "bool",
          "name": "approved",
          "type": "bool"
        }
      ],
      "name": "setApprovalForAll",
      "outputs": [],
      "stateMutability": "nonpayable",
      "type": "function"
    },
    {
      "inputs": [
        {
          "internalType": "uint256",
          "name": "maxSupply_",
          "type": "uint256"
        }
      ],
      "name": "setMaxSupply",
      "outputs": [],
      "stateMutability": "nonpayable",
      "type": "function"
    },
    {
      "inputs": [
        {
          "internalType": "bytes4",
          "name": "interfaceId",
          "type": "bytes4"
        }
      ],
      "name": "supportsInterface",
      "outputs": [
        {
          "internalType": "bool",
          "name": "",
          "type": "bool"
        }
      ],
      "stateMutability": "view",
      "type": "function"
    },
    {
      "inputs": [],
      "name": "symbol",
      "outputs": [
        {
          "internalType": "string",
          "name": "",
          "type": "string"
        }
      ],
      "stateMutability": "view",
      "type": "function"
    },
    {
      "inputs": [],
      "name": "toggleIsMintEnabled",
      "outputs": [],
      "stateMutability": "nonpayable",
      "type": "function"
    },
    {
      "inputs": [
        {
          "internalType": "uint256",
          "name": "tokenId",
          "type": "uint256"
        }
      ],
      "name": "tokenURI",
      "outputs": [
        {
          "internalType": "string",
          "name": "",
          "type": "string"
        }
      ],
      "stateMutability": "view",
      "type": "function"
    },
    {
      "inputs": [],
      "name": "totalSupply",
      "outputs": [
        {
          "internalType": "uint256",
          "name": "",
          "type": "uint256"
        }
      ],
      "stateMutability": "view",
      "type": "function"
    },
    {
      "inputs": [
        {
          "internalType": "address",
          "name": "from",
          "type": "address"
        },
        {
          "internalType": "address",
          "name": "to",
          "type": "address"
        },
        {
          "internalType": "uint256",
          "name": "tokenId",
          "type": "uint256"
        }
      ],
      "name": "transferFrom",
      "outputs": [],
      "stateMutability": "nonpayable",
      "type": "function"
    },
    {
      "inputs": [
        {
          "internalType": "address",
          "name": "newOwner",
          "type": "address"
        }
      ],
      "name": "transferOwnership",
      "outputs": [],
      "stateMutability": "nonpayable",
      "type": "function"
    }
  ],
  "bytecode": "0x608060405266038d7ea4c68000600755336040518060400160405280600b81526020017f53696d706c65204d696e740000000000000000000000000000000000000000008152506040518060400160405280600a81526020017f53494d504c454d494e5400000000000000000000000000000000000000000000815250816000908161008b9190610443565b50806001908161009b9190610443565b505050600073ffffffffffffffffffffffffffffffffffffffff168173ffffffffffffffffffffffffffffffffffffffff16036101105760006040517f1e4fbdf70000000000000000000000000000000000000000000000000000000081526004016101079190610556565b60405180910390fd5b61011f8161012d60201b60201c565b506014600981905550610571565b6000600660009054906101000a900473ffffffffffffffffffffffffffffffffffffffff16905081600660006101000a81548173ffffffffffffffffffffffffffffffffffffffff021916908373ffffffffffffffffffffffffffffffffffffffff1602179055508173ffffffffffffffffffffffffffffffffffffffff168173ffffffffffffffffffffffffffffffffffffffff167f8be0079c531659141344cd1fd0a4f28419497f9722a3daafe3b4186f6b6457e060405160405180910390a35050565b600081519050919050565b7f4e487b7100000000000000000000000000000000000000000000000000000000600052604160045260246000fd5b7f4e487b7100000000000000000000000000000000000000000000000000000000600052602260045260246000fd5b6000600282049050600182168061027457607f821691505b6020821081036102875761028661022d565b5b50919050565b60008190508160005260206000209050919050565b60006020601f8301049050919050565b600082821b905092915050565b6000600883026102ef7fffffffffffffffffffffffffffffffffffffffffffffffffffffffffffffffff826102b2565b6102f986836102b2565b95508019841693508086168417925050509392505050565b6000819050919050565b6000819050919050565b600061034061033b61033684610311565b61031b565b610311565b9050919050565b6000819050919050565b61035a83610325565b61036e61036682610347565b8484546102bf565b825550505050565b600090565b610383610376565b61038e818484610351565b505050565b5b818110156103b2576103a760008261037b565b600181019050610394565b5050565b601f8211156103f7576103c88161028d565b6103d1846102a2565b810160208510156103e0578190505b6103f46103ec856102a2565b830182610393565b50505b505050565b600082821c905092915050565b600061041a600019846008026103fc565b1980831691505092915050565b60006104338383610409565b9150826002028217905092915050565b61044c826101f3565b67ffffffffffffffff811115610465576104646101fe565b5b61046f825461025c565b61047a8282856103b6565b600060209050601f8311600181146104ad576000841561049b578287015190505b6104a58582610427565b86555061050d565b601f1984166104bb8661028d565b60005b828110156104e3578489015182556001820191506020850194506020810190506104be565b8683101561050057848901516104fc601f891682610409565b8355505b6001600288020188555050505b505050505050565b600073ffffffffffffffffffffffffffffffffffffffff82169050919050565b600061054082610515565b9050919050565b61055081610535565b82525050565b600060208201905061056b6000830184610547565b92915050565b612713806105806000396000f3fe60806040526004361061014b5760003560e01c806370a08231116100b6578063b88d4fde1161006f578063b88d4fde14610471578063c40732171461049a578063c87b56dd146104b1578063d5abeb01146104ee578063e985e9c514610519578063f2fde38b146105565761014b565b806370a0823114610361578063715018a61461039e5780638da5cb5b146103b557806395d89b41146103e0578063a22cb4651461040b578063ada7c4ed146104345761014b565b806323b872dd1161010857806323b872dd14610253578063346de50a1461027c57806342842e0e146102a75780636352211e146102d05780636817c76c1461030d5780636f8b44b0146103385761014b565b806301ffc9a71461015057806306fdde031461018d578063081812fc146101b8578063095ea7b3146101f55780631249c58b1461021e57806318160ddd14610228575b600080fd5b34801561015c57600080fd5b5061017760048036038101906101729190611d36565b61057f565b6040516101849190611d7e565b60405180910390f35b34801561019957600080fd5b506101a2610661565b6040516101af9190611e29565b60405180910390f35b3480156101c457600080fd5b506101df60048036038101906101da9190611e81565b6106f3565b6040516101ec9190611eef565b60405180910390f35b34801561020157600080fd5b5061021c60048036038101906102179190611f36565b61070f565b005b610226610725565b005b34801561023457600080fd5b5061023d610901565b60405161024a9190611f85565b60405180910390f35b34801561025f57600080fd5b5061027a60048036038101906102759190611fa0565b610907565b005b34801561028857600080fd5b50610291610a09565b60405161029e9190611d7e565b60405180910390f35b3480156102b357600080fd5b506102ce60048036038101906102c99190611fa0565b610a1c565b005b3480156102dc57600080fd5b506102f760048036038101906102f29190611e81565b610a3c565b6040516103049190611eef565b60405180910390f35b34801561031957600080fd5b50610322610a4e565b60405161032f9190611f85565b60405180910390f35b34801561034457600080fd5b5061035f600480360381019061035a9190611e81565b610a54565b005b34801561036d57600080fd5b5061038860048036038101906103839190611ff3565b610a66565b6040516103959190611f85565b60405180910390f35b3480156103aa57600080fd5b506103b3610b20565b005b3480156103c157600080fd5b506103ca610b34565b6040516103d79190611eef565b60405180910390f35b3480156103ec57600080fd5b506103f5610b5e565b6040516104029190611e29565b60405180910390f35b34801561041757600080fd5b50610432600480360381019061042d919061204c565b610bf0565b005b34801561044057600080fd5b5061045b60048036038101906104569190611ff3565b610c06565b6040516104689190611f85565b60405180910390f35b34801561047d57600080fd5b50610498600480360381019061049391906121c1565b610c1e565b005b3480156104a657600080fd5b506104af610c43565b005b3480156104bd57600080fd5b506104d860048036038101906104d39190611e81565b610c77565b6040516104e59190611e29565b60405180910390f35b3480156104fa57600080fd5b50610503610ce0565b6040516105109190611f85565b60405180910390f35b34801561052557600080fd5b50610540600480360381019061053b9190612244565b610ce6565b60405161054d9190611d7e565b60405180910390f35b34801561056257600080fd5b5061057d60048036038101906105789190611ff3565b610d7a565b005b60007f80ac58cd000000000000000000000000000000000000000000000000000000007bffffffffffffffffffffffffffffffffffffffffffffffffffffffff1916827bffffffffffffffffffffffffffffffffffffffffffffffffffffffff1916148061064a57507f5b5e139f000000000000000000000000000000000000000000000000000000007bffffffffffffffffffffffffffffffffffffffffffffffffffffffff1916827bffffffffffffffffffffffffffffffffffffffffffffffffffffffff1916145b8061065a575061065982610e00565b5b9050919050565b606060008054610670906122b3565b80601f016020809104026020016040519081016040528092919081815260200182805461069c906122b3565b80156106e95780601f106106be576101008083540402835291602001916106e9565b820191906000526020600020905b8154815290600101906020018083116106cc57829003601f168201915b5050505050905090565b60006106fe82610e6a565b5061070882610ef2565b9050919050565b610721828261071c610f2f565b610f37565b5050565b600a60009054906101000a900460ff16610774576040517f08c379a000000000000000000000000000000000000000000000000000000000815260040161076b90612330565b60405180910390fd5b6001600b60003373ffffffffffffffffffffffffffffffffffffffff1673ffffffffffffffffffffffffffffffffffffffff16815260200190815260200160002054106107f6576040517f08c379a00000000000000000000000000000000000000000000000000000000081526004016107ed9061239c565b60405180910390fd5b600754341461083a576040517f08c379a000000000000000000000000000000000000000000000000000000000815260040161083190612408565b60405180910390fd5b60085460095411610880576040517f08c379a000000000000000000000000000000000000000000000000000000000815260040161087790612474565b60405180910390fd5b600b60003373ffffffffffffffffffffffffffffffffffffffff1673ffffffffffffffffffffffffffffffffffffffff16815260200190815260200160002060008154809291906108d0906124c3565b9190505550600860008154809291906108e8906124c3565b9190505550600060085490506108fe3382610f49565b50565b60085481565b600073ffffffffffffffffffffffffffffffffffffffff168273ffffffffffffffffffffffffffffffffffffffff16036109795760006040517f64a0ae920000000000000000000000000000000000000000000000000000000081526004016109709190611eef565b60405180910390fd5b600061098d8383610988610f2f565b610f67565b90508373ffffffffffffffffffffffffffffffffffffffff168173ffffffffffffffffffffffffffffffffffffffff1614610a03578382826040517f64283d7b0000000000000000000000000000000000000000000000000000000081526004016109fa9392919061250b565b60405180910390fd5b50505050565b600a60009054906101000a900460ff1681565b610a3783838360405180602001604052806000815250610c1e565b505050565b6000610a4782610e6a565b9050919050565b60075481565b610a5c611181565b8060098190555050565b60008073ffffffffffffffffffffffffffffffffffffffff168273ffffffffffffffffffffffffffffffffffffffff1603610ad95760006040517f89c62b64000000000000000000000000000000000000000000000000000000008152600401610ad09190611eef565b60405180910390fd5b600360008373ffffffffffffffffffffffffffffffffffffffff1673ffffffffffffffffffffffffffffffffffffffff168152602001908152602001600020549050919050565b610b28611181565b610b326000611208565b565b6000600660009054906101000a900473ffffffffffffffffffffffffffffffffffffffff16905090565b606060018054610b6d906122b3565b80601f0160208091040260200160405190810160405280929190818152602001828054610b99906122b3565b8015610be65780601f10610bbb57610100808354040283529160200191610be6565b820191906000526020600020905b815481529060010190602001808311610bc957829003601f168201915b5050505050905090565b610c02610bfb610f2f565b83836112ce565b5050565b600b6020528060005260406000206000915090505481565b610c29848484610907565b610c3d610c34610f2f565b8585858561143d565b50505050565b610c4b611181565b600a60009054906101000a900460ff1615600a60006101000a81548160ff021916908315150217905550565b6060610c8282610e6a565b506000610c8d6115ee565b90506000815111610cad5760405180602001604052806000815250610cd8565b80610cb784611605565b604051602001610cc892919061257e565b6040516020818303038152906040525b915050919050565b60095481565b6000600560008473ffffffffffffffffffffffffffffffffffffffff1673ffffffffffffffffffffffffffffffffffffffff16815260200190815260200160002060008373ffffffffffffffffffffffffffffffffffffffff1673ffffffffffffffffffffffffffffffffffffffff16815260200190815260200160002060009054906101000a900460ff16905092915050565b610d82611181565b600073ffffffffffffffffffffffffffffffffffffffff168173ffffffffffffffffffffffffffffffffffffffff1603610df45760006040517f1e4fbdf7000000000000000000000000000000000000000000000000000000008152600401610deb9190611eef565b60405180910390fd5b610dfd81611208565b50565b60007f01ffc9a7000000000000000000000000000000000000000000000000000000007bffffffffffffffffffffffffffffffffffffffffffffffffffffffff1916827bffffffffffffffffffffffffffffffffffffffffffffffffffffffff1916149050919050565b600080610e76836116d3565b9050600073ffffffffffffffffffffffffffffffffffffffff168173ffffffffffffffffffffffffffffffffffffffff1603610ee957826040517f7e273289000000000000000000000000000000000000000000000000000000008152600401610ee09190611f85565b60405180910390fd5b80915050919050565b60006004600083815260200190815260200160002060009054906101000a900473ffffffffffffffffffffffffffffffffffffffff169050919050565b600033905090565b610f448383836001611710565b505050565b610f638282604051806020016040528060008152506118d5565b5050565b600080610f73846116d3565b9050600073ffffffffffffffffffffffffffffffffffffffff168373ffffffffffffffffffffffffffffffffffffffff1614610fb557610fb48184866118f9565b5b600073ffffffffffffffffffffffffffffffffffffffff168173ffffffffffffffffffffffffffffffffffffffff161461104657610ff7600085600080611710565b6001600360008373ffffffffffffffffffffffffffffffffffffffff1673ffffffffffffffffffffffffffffffffffffffff168152602001908152602001600020600082825403925050819055505b600073ffffffffffffffffffffffffffffffffffffffff168573ffffffffffffffffffffffffffffffffffffffff16146110c9576001600360008773ffffffffffffffffffffffffffffffffffffffff1673ffffffffffffffffffffffffffffffffffffffff168152602001908152602001600020600082825401925050819055505b846002600086815260200190815260200160002060006101000a81548173ffffffffffffffffffffffffffffffffffffffff021916908373ffffffffffffffffffffffffffffffffffffffff160217905550838573ffffffffffffffffffffffffffffffffffffffff168273ffffffffffffffffffffffffffffffffffffffff167fddf252ad1be2c89b69c2b068fc378daa952ba7f163c4a11628f55a4df523b3ef60405160405180910390a4809150509392505050565b611189610f2f565b73ffffffffffffffffffffffffffffffffffffffff166111a7610b34565b73ffffffffffffffffffffffffffffffffffffffff1614611206576111ca610f2f565b6040517f118cdaa70000000000000000000000000000000000000000000000000000000081526004016111fd9190611eef565b60405180910390fd5b565b6000600660009054906101000a900473ffffffffffffffffffffffffffffffffffffffff16905081600660006101000a81548173ffffffffffffffffffffffffffffffffffffffff021916908373ffffffffffffffffffffffffffffffffffffffff1602179055508173ffffffffffffffffffffffffffffffffffffffff168173ffffffffffffffffffffffffffffffffffffffff167f8be0079c531659141344cd1fd0a4f28419497f9722a3daafe3b4186f6b6457e060405160405180910390a35050565b600073ffffffffffffffffffffffffffffffffffffffff168273ffffffffffffffffffffffffffffffffffffffff160361133f57816040517f5b08ba180000000000000000000000000000000000000000000000000000000081526004016113369190611eef565b60405180910390fd5b80600560008573ffffffffffffffffffffffffffffffffffffffff1673ffffffffffffffffffffffffffffffffffffffff16815260200190815260200160002060008473ffffffffffffffffffffffffffffffffffffffff1673ffffffffffffffffffffffffffffffffffffffff16815260200190815260200160002060006101000a81548160ff0219169083151502179055508173ffffffffffffffffffffffffffffffffffffffff168373ffffffffffffffffffffffffffffffffffffffff167f17307eab39ab6107e8899845ad3d59bd9653f200f220920489ca2b5937696c31836040516114309190611d7e565b60405180910390a3505050565b60008373ffffffffffffffffffffffffffffffffffffffff163b11156115e7578273ffffffffffffffffffffffffffffffffffffffff1663150b7a02868685856040518563ffffffff1660e01b815260040161149c94939291906125f7565b6020604051808303816000875af19250505080156114d857506040513d601f19601f820116820180604052508101906114d59190612658565b60015b61155c573d8060008114611508576040519150601f19603f3d011682016040523d82523d6000602084013e61150d565b606091505b50600081510361155457836040517f64a0ae9200000000000000000000000000000000000000000000000000000000815260040161154b9190611eef565b60405180910390fd5b805160208201fd5b63150b7a0260e01b7bffffffffffffffffffffffffffffffffffffffffffffffffffffffff1916817bffffffffffffffffffffffffffffffffffffffffffffffffffffffff1916146115e557836040517f64a0ae920000000000000000000000000000000000000000000000000000000081526004016115dc9190611eef565b60405180910390fd5b505b5050505050565b606060405180602001604052806000815250905090565b606060006001611614846119bd565b01905060008167ffffffffffffffff81111561163357611632612096565b5b6040519080825280601f01601f1916602001820160405280156116655781602001600182028036833780820191505090505b509050600082602083010190505b6001156116c8578080600190039150507f3031323334353637383961626364656600000000000000000000000000000000600a86061a8153600a85816116bc576116bb612685565b5b04945060008503611673575b819350505050919050565b60006002600083815260200190815260200160002060009054906101000a900473ffffffffffffffffffffffffffffffffffffffff169050919050565b80806117495750600073ffffffffffffffffffffffffffffffffffffffff168273ffffffffffffffffffffffffffffffffffffffff1614155b1561187d57600061175984610e6a565b9050600073ffffffffffffffffffffffffffffffffffffffff168373ffffffffffffffffffffffffffffffffffffffff16141580156117c457508273ffffffffffffffffffffffffffffffffffffffff168173ffffffffffffffffffffffffffffffffffffffff1614155b80156117d757506117d58184610ce6565b155b1561181957826040517fa9fbf51f0000000000000000000000000000000000000000000000000000000081526004016118109190611eef565b60405180910390fd5b811561187b57838573ffffffffffffffffffffffffffffffffffffffff168273ffffffffffffffffffffffffffffffffffffffff167f8c5be1e5ebec7d5bd14f71427d1e84f3dd0314c0f7b2291e5b200ac8c7c3b92560405160405180910390a45b505b836004600085815260200190815260200160002060006101000a81548173ffffffffffffffffffffffffffffffffffffffff021916908373ffffffffffffffffffffffffffffffffffffffff16021790555050505050565b6118df8383611b10565b6118f46118ea610f2f565b600085858561143d565b505050565b611904838383611c09565b6119b857600073ffffffffffffffffffffffffffffffffffffffff168373ffffffffffffffffffffffffffffffffffffffff160361197957806040517f7e2732890000000000000000000000000000000000000000000000000000000081526004016119709190611f85565b60405180910390fd5b81816040517f177e802f0000000000000000000000000000000000000000000000000000000081526004016119af9291906126b4565b60405180910390fd5b505050565b600080600090507a184f03e93ff9f4daa797ed6e38ed64bf6a1f0100000000000000008310611a1b577a184f03e93ff9f4daa797ed6e38ed64bf6a1f0100000000000000008381611a1157611a10612685565b5b0492506040810190505b6d04ee2d6d415b85acef81000000008310611a58576d04ee2d6d415b85acef81000000008381611a4e57611a4d612685565b5b0492506020810190505b662386f26fc100008310611a8757662386f26fc100008381611a7d57611a7c612685565b5b0492506010810190505b6305f5e1008310611ab0576305f5e1008381611aa657611aa5612685565b5b0492506008810190505b6127108310611ad5576127108381611acb57611aca612685565b5b0492506004810190505b60648310611af85760648381611aee57611aed612685565b5b0492506002810190505b600a8310611b07576001810190505b80915050919050565b600073ffffffffffffffffffffffffffffffffffffffff168273ffffffffffffffffffffffffffffffffffffffff1603611b825760006040517f64a0ae92000000000000000000000000000000000000000000000000000000008152600401611b799190611eef565b60405180910390fd5b6000611b9083836000610f67565b9050600073ffffffffffffffffffffffffffffffffffffffff168173ffffffffffffffffffffffffffffffffffffffff1614611c045760006040517f73c6ac6e000000000000000000000000000000000000000000000000000000008152600401611bfb9190611eef565b60405180910390fd5b505050565b60008073ffffffffffffffffffffffffffffffffffffffff168373ffffffffffffffffffffffffffffffffffffffff1614158015611cc157508273ffffffffffffffffffffffffffffffffffffffff168473ffffffffffffffffffffffffffffffffffffffff161480611c825750611c818484610ce6565b5b80611cc057508273ffffffffffffffffffffffffffffffffffffffff16611ca883610ef2565b73ffffffffffffffffffffffffffffffffffffffff16145b5b90509392505050565b6000604051905090565b600080fd5b600080fd5b60007fffffffff0000000000000000000000000000000000000000000000000000000082169050919050565b611d1381611cde565b8114611d1e57600080fd5b50565b600081359050611d3081611d0a565b92915050565b600060208284031215611d4c57611d4b611cd4565b5b6000611d5a84828501611d21565b91505092915050565b60008115159050919050565b611d7881611d63565b82525050565b6000602082019050611d936000830184611d6f565b92915050565b600081519050919050565b600082825260208201905092915050565b60005b83811015611dd3578082015181840152602081019050611db8565b60008484015250505050565b6000601f19601f8301169050919050565b6000611dfb82611d99565b611e058185611da4565b9350611e15818560208601611db5565b611e1e81611ddf565b840191505092915050565b60006020820190508181036000830152611e438184611df0565b905092915050565b6000819050919050565b611e5e81611e4b565b8114611e6957600080fd5b50565b600081359050611e7b81611e55565b92915050565b600060208284031215611e9757611e96611cd4565b5b6000611ea584828501611e6c565b91505092915050565b600073ffffffffffffffffffffffffffffffffffffffff82169050919050565b6000611ed982611eae565b9050919050565b611ee981611ece565b82525050565b6000602082019050611f046000830184611ee0565b92915050565b611f1381611ece565b8114611f1e57600080fd5b50565b600081359050611f3081611f0a565b92915050565b60008060408385031215611f4d57611f4c611cd4565b5b6000611f5b85828601611f21565b9250506020611f6c85828601611e6c565b9150509250929050565b611f7f81611e4b565b82525050565b6000602082019050611f9a6000830184611f76565b92915050565b600080600060608486031215611fb957611fb8611cd4565b5b6000611fc786828701611f21565b9350506020611fd886828701611f21565b9250506040611fe986828701611e6c565b9150509250925092565b60006020828403121561200957612008611cd4565b5b600061201784828501611f21565b91505092915050565b61202981611d63565b811461203457600080fd5b50565b60008135905061204681612020565b92915050565b6000806040838503121561206357612062611cd4565b5b600061207185828601611f21565b925050602061208285828601612037565b9150509250929050565b600080fd5b600080fd5b7f4e487b7100000000000000000000000000000000000000000000000000000000600052604160045260246000fd5b6120ce82611ddf565b810181811067ffffffffffffffff821117156120ed576120ec612096565b5b80604052505050565b6000612100611cca565b905061210c82826120c5565b919050565b600067ffffffffffffffff82111561212c5761212b612096565b5b61213582611ddf565b9050602081019050919050565b82818337600083830152505050565b600061216461215f84612111565b6120f6565b9050828152602081018484840111156121805761217f612091565b5b61218b848285612142565b509392505050565b600082601f8301126121a8576121a761208c565b5b81356121b8848260208601612151565b91505092915050565b600080600080608085870312156121db576121da611cd4565b5b60006121e987828801611f21565b94505060206121fa87828801611f21565b935050604061220b87828801611e6c565b925050606085013567ffffffffffffffff81111561222c5761222b611cd9565b5b61223887828801612193565b91505092959194509250565b6000806040838503121561225b5761225a611cd4565b5b600061226985828601611f21565b925050602061227a85828601611f21565b9150509250929050565b7f4e487b7100000000000000000000000000000000000000000000000000000000600052602260045260246000fd5b600060028204905060018216806122cb57607f821691505b6020821081036122de576122dd612284565b5b50919050565b7f6d696e74696e67206e6f7420656e61626c656400000000000000000000000000600082015250565b600061231a601383611da4565b9150612325826122e4565b602082019050919050565b600060208201905081810360008301526123498161230d565b9050919050565b7f657865656473206d6178207065722077616c6c65740000000000000000000000600082015250565b6000612386601583611da4565b915061239182612350565b602082019050919050565b600060208201905081810360008301526123b581612379565b9050919050565b7f77726f6e672076616c7565000000000000000000000000000000000000000000600082015250565b60006123f2600b83611da4565b91506123fd826123bc565b602082019050919050565b60006020820190508181036000830152612421816123e5565b9050919050565b7f736f6c64206f7574000000000000000000000000000000000000000000000000600082015250565b600061245e600883611da4565b915061246982612428565b602082019050919050565b6000602082019050818103600083015261248d81612451565b9050919050565b7f4e487b7100000000000000000000000000000000000000000000000000000000600052601160045260246000fd5b60006124ce82611e4b565b91507fffffffffffffffffffffffffffffffffffffffffffffffffffffffffffffffff8203612500576124ff612494565b5b600182019050919050565b60006060820190506125206000830186611ee0565b61252d6020830185611f76565b61253a6040830184611ee0565b949350505050565b600081905092915050565b600061255882611d99565b6125628185612542565b9350612572818560208601611db5565b80840191505092915050565b600061258a828561254d565b9150612596828461254d565b91508190509392505050565b600081519050919050565b600082825260208201905092915050565b60006125c9826125a2565b6125d381856125ad565b93506125e3818560208601611db5565b6125ec81611ddf565b840191505092915050565b600060808201905061260c6000830187611ee0565b6126196020830186611ee0565b6126266040830185611f76565b818103606083015261263881846125be565b905095945050505050565b60008151905061265281611d0a565b92915050565b60006020828403121561266e5761266d611cd4565b5b600061267c84828501612643565b91505092915050565b7f4e487b7100000000000000000000000000000000000000000000000000000000600052601260045260246000fd5b60006040820190506126c96000830185611ee0565b6126d66020830184611f76565b939250505056fea26469706673582212200986d903020b17a4e24eedf4d8fcdd00db016d24264bd9bc658c52071627812864736f6c634300081c0033",
  "linkReferences": {},
  "deployedLinkReferences": {}
}